:020000040000FA
:100000008801870186018501503090000630840008
:100010008001840A04087F3C031D0828FF288614F9
:1000200006140800861006100800851086100800C7
:1000300086140800051006100800061408001D208C
:1000400018201A20152008001A201820851C2628A0
:100050001D20080043100830C200C01B1D20C01F17
:100060001A201820851C32281520C00DC20B2D28FF
:100070001D201820851C3A28051843141520080057
:10008000C1010830C2000310C10D1D200120851CD4
:100090004728051841141520C20B432043181D2082
:1000A0001820851C512815200800820708340834C0
:1000B0000034820707340634033407340634053429
:1000C00005340734073407348207173414340634F0
:1000D00016341534133482071D3418340C341C3490
:1000E0001934153415341C341D341D34820776340C
:1000F00040346E348207B034003470345034C0342D
:10010000D034F0340034F034D0348207503400342A
:10011000D034903480349034820760340034E0343A
:10012000A0348034A034E0340034E034A0345008EB
:1001300082079D28A428AB28B22851085520CC045A
:1001400051087620CD04080051085920CB045108ED
:100150007A20CC04080051086420C9045108852085
:10016000CA04080051086B20C80451088C20C90437
:100170000800CC203030C70085100511051085140B
:1001800000008510C70BBE280510851400008510DF
:100190000515000005110800C801C901CA01CB01FD
:1001A000CC01CD0108000310CE01851005114808CF
:1001B000CE00F2204908CE00F2204A08CE00F220FC
:1001C0004B08CE00F2204C08CE00F2204D08CE00A5
:1001D000F2200510851400000000851005150000B0
:1001E000051108000830CF000310CE0D05100318CC
:1001F0000514851400008510CF0BF5280800CC20CD
:100200005F29FF28A630C400C40B042900000800A1
:100210000221022108000000000000000000080088
:100220001F20D030C0002A200030C0002A20242007
:100230001F20D130C0002A2040204108D6002420B1
:10024000D6131F20D030C0002A200030C0002A2042
:100250005608C0002A203030C0002A201230C000CA
:100260002A20242008001F20D030C0002A2000307F
:10027000C0002A2024201F20D130C0002A20402086
:10028000D7004020D8004020D90024200800520880
:10029000D1000030D00097205308D1000130D000A9
:1002A00097205408D1000230D00097205508D10083
:1002B0000330D0009720D320CC2077215F2908215C
:1002C000D50A0A305502031D4729D501D40A063044
:1002D0005402031D4729D401D30A0A305302031DD7
:1002E0004729D301D20A02305202031D472952087E
:1002F000023A031D5F295308033A031D5F2954087E
:10030000053A031D5F295508093A031D0800D2016B
:0C031000D301D401D501B920CC20080095
:02400E00863EEC
:00000001FF
